{"contracts/smartContractTronix.sol":{"smartContractTronix":{"abi":[{"anonymous":false,"inputs":[{"indexed":false,"internalType":"uint256","name":"id","type":"uint256"},{"indexed":false,"internalType":"string","name":"name","type":"string"},{"indexed":false,"internalType":"string","name":"description","type":"string"}],"name":"ItemCreated","type":"event"},{"anonymous":false,"inputs":[{"indexed":false,"internalType":"uint256","name":"id","type":"uint256"},{"indexed":false,"internalType":"string","name":"name","type":"string"},{"indexed":false,"internalType":"string","name":"description","type":"string"}],"name":"ItemUpdated","type":"event"},{"inputs":[{"internalType":"string","name":"_name","type":"string"},{"internalType":"string","name":"_description","type":"string"}],"name":"createItem","outputs":[],"stateMutability":"nonpayable","type":"function"},{"inputs":[{"internalType":"uint256","name":"_id","type":"uint256"}],"name":"readItem","outputs":[{"components":[{"internalType":"uint256","name":"id","type":"uint256"},{"internalType":"string","name":"name","type":"string"},{"internalType":"string","name":"description","type":"string"}],"internalType":"struct smartContractTronix.Item","name":"","type":"tuple"}],"stateMutability":"view","type":"function"},{"inputs":[{"internalType":"uint256","name":"_id","type":"uint256"},{"internalType":"string","name":"_name","type":"string"},{"internalType":"string","name":"_description","type":"string"}],"name":"updateItem","outputs":[],"stateMutability":"nonpayable","type":"function"}],"evm":{"bytecode":{"linkReferences":{},"object":"6080604052348015600f57600080fd5b50610c568061001f6000396000f3fe608060405234801561001057600080fd5b50600436106100415760003560e01c8063461304ac14610046578063838b96bd14610062578063e03fd74c14610092575b600080fd5b610060600480360381019061005b919061058a565b6100ae565b005b61007c60048036038101906100779190610615565b610178565b6040516100899190610727565b60405180910390f35b6100ac60048036038101906100a79190610749565b610316565b005b60015483106100f2576040517f08c379a00000000000000000000000000000000000000000000000000000000081526004016100e99061081e565b60405180910390fd5b8160008085815260200190815260200160002060010190816101149190610a4a565b508060008085815260200190815260200160002060020190816101379190610a4a565b507fbf4a7d691939ab5b2b4a184365cfb2e54353ec11a2b035ad55b2a5569475bdb983838360405161016b93929190610b64565b60405180910390a1505050565b6101806103d9565b60015482106101c4576040517f08c379a00000000000000000000000000000000000000000000000000000000081526004016101bb9061081e565b60405180910390fd5b600080838152602001908152602001600020604051806060016040529081600082015481526020016001820180546101fb9061086d565b80601f01602080910402602001604051908101604052809291908181526020018280546102279061086d565b80156102745780601f1061024957610100808354040283529160200191610274565b820191906000526020600020905b81548152906001019060200180831161025757829003601f168201915b5050505050815260200160028201805461028d9061086d565b80601f01602080910402602001604051908101604052809291908181526020018280546102b99061086d565b80156103065780601f106102db57610100808354040283529160200191610306565b820191906000526020600020905b8154815290600101906020018083116102e957829003601f168201915b5050505050815250509050919050565b604051806060016040528060015481526020018381526020018281525060008060015481526020019081526020016000206000820151816000015560208201518160010190816103669190610a4a565b50604082015181600201908161037c9190610a4a565b509050507f7179977f81d27c241e5f84bd179e388a2875c956dec1b884a1427ff70d1cdd7560015483836040516103b593929190610b64565b60405180910390a1600160008154809291906103d090610bd8565b91905055505050565b60405180606001604052806000815260200160608152602001606081525090565b6000604051905090565b600080fd5b600080fd5b6000819050919050565b6104218161040e565b811461042c57600080fd5b50565b60008135905061043e81610418565b92915050565b600080fd5b600080fd5b6000601f19601f8301169050919050565b7f4e487b7100000000000000000000000000000000000000000000000000000000600052604160045260246000fd5b6104978261044e565b810181811067ffffffffffffffff821117156104b6576104b561045f565b5b80604052505050565b60006104c96103fa565b90506104d5828261048e565b919050565b600067ffffffffffffffff8211156104f5576104f461045f565b5b6104fe8261044e565b9050602081019050919050565b82818337600083830152505050565b600061052d610528846104da565b6104bf565b90508281526020810184848401111561054957610548610449565b5b61055484828561050b565b509392505050565b600082601f83011261057157610570610444565b5b813561058184826020860161051a565b91505092915050565b6000806000606084860312156105a3576105a2610404565b5b60006105b18682870161042f565b935050602084013567ffffffffffffffff8111156105d2576105d1610409565b5b6105de8682870161055c565b925050604084013567ffffffffffffffff8111156105ff576105fe610409565b5b61060b8682870161055c565b9150509250925092565b60006020828403121561062b5761062a610404565b5b60006106398482850161042f565b91505092915050565b61064b8161040e565b82525050565b600081519050919050565b600082825260208201905092915050565b60005b8381101561068b578082015181840152602081019050610670565b60008484015250505050565b60006106a282610651565b6106ac818561065c565b93506106bc81856020860161066d565b6106c58161044e565b840191505092915050565b60006060830160008301516106e86000860182610642565b50602083015184820360208601526107008282610697565b9150506040830151848203604086015261071a8282610697565b9150508091505092915050565b6000602082019050818103600083015261074181846106d0565b905092915050565b600080604083850312156107605761075f610404565b5b600083013567ffffffffffffffff81111561077e5761077d610409565b5b61078a8582860161055c565b925050602083013567ffffffffffffffff8111156107ab576107aa610409565b5b6107b78582860161055c565b9150509250929050565b600082825260208201905092915050565b7f4974656d20646f6573206e6f7420657869737400000000000000000000000000600082015250565b60006108086013836107c1565b9150610813826107d2565b602082019050919050565b60006020820190508181036000830152610837816107fb565b9050919050565b7f4e487b7100000000000000000000000000000000000000000000000000000000600052602260045260246000fd5b6000600282049050600182168061088557607f821691505b6020821081036108985761089761083e565b5b50919050565b60008190508160005260206000209050919050565b60006020601f8301049050919050565b600082821b905092915050565b6000600883026109007fffffffffffffffffffffffffffffffffffffffffffffffffffffffffffffffff826108c3565b61090a86836108c3565b95508019841693508086168417925050509392505050565b6000819050919050565b600061094761094261093d8461040e565b610922565b61040e565b9050919050565b6000819050919050565b6109618361092c565b61097561096d8261094e565b8484546108d0565b825550505050565b600090565b61098a61097d565b610995818484610958565b505050565b5b818110156109b9576109ae600082610982565b60018101905061099b565b5050565b601f8211156109fe576109cf8161089e565b6109d8846108b3565b810160208510156109e7578190505b6109fb6109f3856108b3565b83018261099a565b50505b505050565b600082821c905092915050565b6000610a2160001984600802610a03565b1980831691505092915050565b6000610a3a8383610a10565b9150826002028217905092915050565b610a5382610651565b67ffffffffffffffff811115610a6c57610a6b61045f565b5b610a76825461086d565b610a818282856109bd565b600060209050601f831160018114610ab45760008415610aa2578287015190505b610aac8582610a2e565b865550610b14565b601f198416610ac28661089e565b60005b82811015610aea57848901518255600182019150602085019450602081019050610ac5565b86831015610b075784890151610b03601f891682610a10565b8355505b6001600288020188555050505b505050505050565b610b258161040e565b82525050565b6000610b3682610651565b610b4081856107c1565b9350610b5081856020860161066d565b610b598161044e565b840191505092915050565b6000606082019050610b796000830186610b1c565b8181036020830152610b8b8185610b2b565b90508181036040830152610b9f8184610b2b565b9050949350505050565b7f4e487b7100000000000000000000000000000000000000000000000000000000600052601160045260246000fd5b6000610be38261040e565b91507fffffffffffffffffffffffffffffffffffffffffffffffffffffffffffffffff8203610c1557610c14610ba9565b5b60018201905091905056fea2646970667358221220b639f4a69b180bb837d38d5855f8964e3f580cc7fc6eca78c108e1058c56c0f064736f6c634300081c0033","opcodes":"PUSH1 0x80 PUSH1 0x40 MSTORE CALLVALUE DUP1 ISZERO PUSH1 0xF JUMPI PUSH1 0x0 DUP1 REVERT JUMPDEST POP PUSH2 0xC56 DUP1 PUSH2 0x1F PUSH1 0x0 CODECOPY PUSH1 0x0 RETURN INVALID PUSH1 0x80 PUSH1 0x40 MSTORE CALLVALUE DUP1 ISZERO PUSH2 0x10 JUMPI PUSH1 0x0 DUP1 REVERT JUMPDEST POP PUSH1 0x4 CALLDATASIZE LT PUSH2 0x41 JUMPI PUSH1 0x0 CALLDATALOAD PUSH1 0xE0 SHR DUP1 PUSH4 0x461304AC EQ PUSH2 0x46 JUMPI DUP1 PUSH4 0x838B96BD EQ PUSH2 0x62 JUMPI DUP1 PUSH4 0xE03FD74C EQ PUSH2 0x92 JUMPI JUMPDEST PUSH1 0x0 DUP1 REVERT JUMPDEST PUSH2 0x60 PUSH1 0x4 DUP1 CALLDATASIZE SUB DUP2 ADD SWAP1 PUSH2 0x5B SWAP2 SWAP1 PUSH2 0x58A JUMP JUMPDEST PUSH2 0xAE JUMP JUMPDEST STOP JUMPDEST PUSH2 0x7C PUSH1 0x4 DUP1 CALLDATASIZE SUB DUP2 ADD SWAP1 PUSH2 0x77 SWAP2 SWAP1 PUSH2 0x615 JUMP JUMPDEST PUSH2 0x178 JUMP JUMPDEST PUSH1 0x40 MLOAD PUSH2 0x89 SWAP2 SWAP1 PUSH2 0x727 JUMP JUMPDEST PUSH1 0x40 MLOAD DUP1 SWAP2 SUB SWAP1 RETURN JUMPDEST PUSH2 0xAC PUSH1 0x4 DUP1 CALLDATASIZE SUB DUP2 ADD SWAP1 PUSH2 0xA7 SWAP2 SWAP1 PUSH2 0x749 JUMP JUMPDEST PUSH2 0x316 JUMP JUMPDEST STOP JUMPDEST PUSH1 0x1 SLOAD DUP4 LT PUSH2 0xF2 JUMPI PUSH1 0x40 MLOAD PUSH32 0x8C379A000000000000000000000000000000000000000000000000000000000 DUP2 MSTORE PUSH1 0x4 ADD PUSH2 0xE9 SWAP1 PUSH2 0x81E JUMP JUMPDEST PUSH1 0x40 MLOAD DUP1 SWAP2 SUB SWAP1 REVERT JUMPDEST DUP2 PUSH1 0x0 DUP1 DUP6 DUP2 MSTORE PUSH1 0x20 ADD SWAP1 DUP2 MSTORE PUSH1 0x20 ADD PUSH1 0x0 KECCAK256 PUSH1 0x1 ADD SWAP1 DUP2 PUSH2 0x114 SWAP2 SWAP1 PUSH2 0xA4A JUMP JUMPDEST POP DUP1 PUSH1 0x0 DUP1 DUP6 DUP2 MSTORE PUSH1 0x20 ADD SWAP1 DUP2 MSTORE PUSH1 0x20 ADD PUSH1 0x0 KECCAK256 PUSH1 0x2 ADD SWAP1 DUP2 PUSH2 0x137 SWAP2 SWAP1 PUSH2 0xA4A JUMP JUMPDEST POP PUSH32 0xBF4A7D691939AB5B2B4A184365CFB2E54353EC11A2B035AD55B2A5569475BDB9 DUP4 DUP4 DUP4 PUSH1 0x40 MLOAD PUSH2 0x16B SWAP4 SWAP3 SWAP2 SWAP1 PUSH2 0xB64 JUMP JUMPDEST PUSH1 0x40 MLOAD DUP1 SWAP2 SUB SWAP1 LOG1 POP POP POP JUMP JUMPDEST PUSH2 0x180 PUSH2 0x3D9 JUMP JUMPDEST PUSH1 0x1 SLOAD DUP3 LT PUSH2 0x1C4 JUMPI PUSH1 0x40 MLOAD PUSH32 0x8C379A000000000000000000000000000000000000000000000000000000000 DUP2 MSTORE PUSH1 0x4 ADD PUSH2 0x1BB SWAP1 PUSH2 0x81E JUMP JUMPDEST PUSH1 0x40 MLOAD DUP1 SWAP2 SUB SWAP1 REVERT JUMPDEST PUSH1 0x0 DUP1 DUP4 DUP2 MSTORE PUSH1 0x20 ADD SWAP1 DUP2 MSTORE PUSH1 0x20 ADD PUSH1 0x0 KECCAK256 PUSH1 0x40 MLOAD DUP1 PUSH1 0x60 ADD PUSH1 0x40 MSTORE SWAP1 DUP2 PUSH1 0x0 DUP3 ADD SLOAD DUP2 MSTORE PUSH1 0x20 ADD PUSH1 0x1 DUP3 ADD DUP1 SLOAD PUSH2 0x1FB SWAP1 PUSH2 0x86D JUMP JUMPDEST DUP1 PUSH1 0x1F ADD PUSH1 0x20 DUP1 SWAP2 DIV MUL PUSH1 0x20 ADD PUSH1 0x40 MLOAD SWAP1 DUP2 ADD PUSH1 0x40 MSTORE DUP1 SWAP3 SWAP2 SWAP1 DUP2 DUP2 MSTORE PUSH1 0x20 ADD DUP3 DUP1 SLOAD PUSH2 0x227 SWAP1 PUSH2 0x86D JUMP JUMPDEST DUP1 ISZERO PUSH2 0x274 JUMPI DUP1 PUSH1 0x1F LT PUSH2 0x249 JUMPI PUSH2 0x100 DUP1 DUP4 SLOAD DIV MUL DUP4 MSTORE SWAP2 PUSH1 0x20 ADD SWAP2 PUSH2 0x274 JUMP JUMPDEST DUP3 ADD SWAP2 SWAP1 PUSH1 0x0 MSTORE PUSH1 0x20 PUSH1 0x0 KECCAK256 SWAP1 JUMPDEST DUP2 SLOAD DUP2 MSTORE SWAP1 PUSH1 0x1 ADD SWAP1 PUSH1 0x20 ADD DUP1 DUP4 GT PUSH2 0x257 JUMPI DUP3 SWAP1 SUB PUSH1 0x1F AND DUP3 ADD SWAP2 JUMPDEST POP POP POP POP POP DUP2 MSTORE PUSH1 0x20 ADD PUSH1 0x2 DUP3 ADD DUP1 SLOAD PUSH2 0x28D SWAP1 PUSH2 0x86D JUMP JUMPDEST DUP1 PUSH1 0x1F ADD PUSH1 0x20 DUP1 SWAP2 DIV MUL PUSH1 0x20 ADD PUSH1 0x40 MLOAD SWAP1 DUP2 ADD PUSH1 0x40 MSTORE DUP1 SWAP3 SWAP2 SWAP1 DUP2 DUP2 MSTORE PUSH1 0x20 ADD DUP3 DUP1 SLOAD PUSH2 0x2B9 SWAP1 PUSH2 0x86D JUMP JUMPDEST DUP1 ISZERO PUSH2 0x306 JUMPI DUP1 PUSH1 0x1F LT PUSH2 0x2DB JUMPI PUSH2 0x100 DUP1 DUP4 SLOAD DIV MUL DUP4 MSTORE SWAP2 PUSH1 0x20 ADD SWAP2 PUSH2 0x306 JUMP JUMPDEST DUP3 ADD SWAP2 SWAP1 PUSH1 0x0 MSTORE PUSH1 0x20 PUSH1 0x0 KECCAK256 SWAP1 JUMPDEST DUP2 SLOAD DUP2 MSTORE SWAP1 PUSH1 0x1 ADD SWAP1 PUSH1 0x20 ADD DUP1 DUP4 GT PUSH2 0x2E9 JUMPI DUP3 SWAP1 SUB PUSH1 0x1F AND DUP3 ADD SWAP2 JUMPDEST POP POP POP POP POP DUP2 MSTORE POP POP SWAP1 POP SWAP2 SWAP1 POP JUMP JUMPDEST PUSH1 0x40 MLOAD DUP1 PUSH1 0x60 ADD PUSH1 0x40 MSTORE DUP1 PUSH1 0x1 SLOAD DUP2 MSTORE PUSH1 0x20 ADD DUP4 DUP2 MSTORE PUSH1 0x20 ADD DUP3 DUP2 MSTORE POP PUSH1 0x0 DUP1 PUSH1 0x1 SLOAD DUP2 MSTORE PUSH1 0x20 ADD SWAP1 DUP2 MSTORE PUSH1 0x20 ADD PUSH1 0x0 KECCAK256 PUSH1 0x0 DUP3 ADD MLOAD DUP2 PUSH1 0x0 ADD SSTORE PUSH1 0x20 DUP3 ADD MLOAD DUP2 PUSH1 0x1 ADD SWAP1 DUP2 PUSH2 0x366 SWAP2 SWAP1 PUSH2 0xA4A JUMP JUMPDEST POP PUSH1 0x40 DUP3 ADD MLOAD DUP2 PUSH1 0x2 ADD SWAP1 DUP2 PUSH2 0x37C SWAP2 SWAP1 PUSH2 0xA4A JUMP JUMPDEST POP SWAP1 POP POP PUSH32 0x7179977F81D27C241E5F84BD179E388A2875C956DEC1B884A1427FF70D1CDD75 PUSH1 0x1 SLOAD DUP4 DUP4 PUSH1 0x40 MLOAD PUSH2 0x3B5 SWAP4 SWAP3 SWAP2 SWAP1 PUSH2 0xB64 JUMP JUMPDEST PUSH1 0x40 MLOAD DUP1 SWAP2 SUB SWAP1 LOG1 PUSH1 0x1 PUSH1 0x0 DUP2 SLOAD DUP1 SWAP3 SWAP2 SWAP1 PUSH2 0x3D0 SWAP1 PUSH2 0xBD8 JUMP JUMPDEST SWAP2 SWAP1 POP SSTORE POP POP POP JUMP JUMPDEST PUSH1 0x40 MLOAD DUP1 PUSH1 0x60 ADD PUSH1 0x40 MSTORE DUP1 PUSH1 0x0 DUP2 MSTORE PUSH1 0x20 ADD PUSH1 0x60 DUP2 MSTORE PUSH1 0x20 ADD PUSH1 0x60 DUP2 MSTORE POP SWAP1 JUMP JUMPDEST PUSH1 0x0 PUSH1 0x40 MLOAD SWAP1 POP SWAP1 JUMP JUMPDEST PUSH1 0x0 DUP1 REVERT JUMPDEST PUSH1 0x0 DUP1 REVERT JUMPDEST PUSH1 0x0 DUP2 SWAP1 POP SWAP2 SWAP1 POP JUMP JUMPDEST PUSH2 0x421 DUP2 PUSH2 0x40E JUMP JUMPDEST DUP2 EQ PUSH2 0x42C JUMPI PUSH1 0x0 DUP1 REVERT JUMPDEST POP JUMP JUMPDEST PUSH1 0x0 DUP2 CALLDATALOAD SWAP1 POP PUSH2 0x43E DUP2 PUSH2 0x418 JUMP JUMPDEST SWAP3 SWAP2 POP POP JUMP JUMPDEST PUSH1 0x0 DUP1 REVERT JUMPDEST PUSH1 0x0 DUP1 REVERT JUMPDEST PUSH1 0x0 PUSH1 0x1F NOT PUSH1 0x1F DUP4 ADD AND SWAP1 POP SWAP2 SWAP1 POP JUMP JUMPDEST PUSH32 0x4E487B7100000000000000000000000000000000000000000000000000000000 PUSH1 0x0 MSTORE PUSH1 0x41 PUSH1 0x4 MSTORE PUSH1 0x24 PUSH1 0x0 REVERT JUMPDEST PUSH2 0x497 DUP3 PUSH2 0x44E JUMP JUMPDEST DUP2 ADD DUP2 DUP2 LT PUSH8 0xFFFFFFFFFFFFFFFF DUP3 GT OR ISZERO PUSH2 0x4B6 JUMPI PUSH2 0x4B5 PUSH2 0x45F JUMP JUMPDEST JUMPDEST DUP1 PUSH1 0x40 MSTORE POP POP POP JUMP JUMPDEST PUSH1 0x0 PUSH2 0x4C9 PUSH2 0x3FA JUMP JUMPDEST SWAP1 POP PUSH2 0x4D5 DUP3 DUP3 PUSH2 0x48E JUMP JUMPDEST SWAP2 SWAP1 POP JUMP JUMPDEST PUSH1 0x0 PUSH8 0xFFFFFFFFFFFFFFFF DUP3 GT ISZERO PUSH2 0x4F5 JUMPI PUSH2 0x4F4 PUSH2 0x45F JUMP JUMPDEST JUMPDEST PUSH2 0x4FE DUP3 PUSH2 0x44E JUMP JUMPDEST SWAP1 POP PUSH1 0x20 DUP2 ADD SWAP1 POP SWAP2 SWAP1 POP JUMP JUMPDEST DUP3 DUP2 DUP4 CALLDATACOPY PUSH1 0x0 DUP4 DUP4 ADD MSTORE POP POP POP JUMP JUMPDEST PUSH1 0x0 PUSH2 0x52D PUSH2 0x528 DUP5 PUSH2 0x4DA JUMP JUMPDEST PUSH2 0x4BF JUMP JUMPDEST SWAP1 POP DUP3 DUP2 MSTORE PUSH1 0x20 DUP2 ADD DUP5 DUP5 DUP5 ADD GT ISZERO PUSH2 0x549 JUMPI PUSH2 0x548 PUSH2 0x449 JUMP JUMPDEST JUMPDEST PUSH2 0x554 DUP5 DUP3 DUP6 PUSH2 0x50B JUMP JUMPDEST POP SWAP4 SWAP3 POP POP POP JUMP JUMPDEST PUSH1 0x0 DUP3 PUSH1 0x1F DUP4 ADD SLT PUSH2 0x571 JUMPI PUSH2 0x570 PUSH2 0x444 JUMP JUMPDEST JUMPDEST DUP2 CALLDATALOAD PUSH2 0x581 DUP5 DUP3 PUSH1 0x20 DUP7 ADD PUSH2 0x51A JUMP JUMPDEST SWAP2 POP POP SWAP3 SWAP2 POP POP JUMP JUMPDEST PUSH1 0x0 DUP1 PUSH1 0x0 PUSH1 0x60 DUP5 DUP7 SUB SLT ISZERO PUSH2 0x5A3 JUMPI PUSH2 0x5A2 PUSH2 0x404 JUMP JUMPDEST JUMPDEST PUSH1 0x0 PUSH2 0x5B1 DUP7 DUP3 DUP8 ADD PUSH2 0x42F JUMP JUMPDEST SWAP4 POP POP PUSH1 0x20 DUP5 ADD CALLDATALOAD PUSH8 0xFFFFFFFFFFFFFFFF DUP2 GT ISZERO PUSH2 0x5D2 JUMPI PUSH2 0x5D1 PUSH2 0x409 JUMP JUMPDEST JUMPDEST PUSH2 0x5DE DUP7 DUP3 DUP8 ADD PUSH2 0x55C JUMP JUMPDEST SWAP3 POP POP PUSH1 0x40 DUP5 ADD CALLDATALOAD PUSH8 0xFFFFFFFFFFFFFFFF DUP2 GT ISZERO PUSH2 0x5FF JUMPI PUSH2 0x5FE PUSH2 0x409 JUMP JUMPDEST JUMPDEST PUSH2 0x60B DUP7 DUP3 DUP8 ADD PUSH2 0x55C JUMP JUMPDEST SWAP2 POP POP SWAP3 POP SWAP3 POP SWAP3 JUMP JUMPDEST PUSH1 0x0 PUSH1 0x20 DUP3 DUP5 SUB SLT ISZERO PUSH2 0x62B JUMPI PUSH2 0x62A PUSH2 0x404 JUMP JUMPDEST JUMPDEST PUSH1 0x0 PUSH2 0x639 DUP5 DUP3 DUP6 ADD PUSH2 0x42F JUMP JUMPDEST SWAP2 POP POP SWAP3 SWAP2 POP POP JUMP JUMPDEST PUSH2 0x64B DUP2 PUSH2 0x40E JUMP JUMPDEST DUP3 MSTORE POP POP JUMP JUMPDEST PUSH1 0x0 DUP2 MLOAD SWAP1 POP SWAP2 SWAP1 POP JUMP JUMPDEST PUSH1 0x0 DUP3 DUP3 MSTORE PUSH1 0x20 DUP3 ADD SWAP1 POP SWAP3 SWAP2 POP POP JUMP JUMPDEST PUSH1 0x0 JUMPDEST DUP4 DUP2 LT ISZERO PUSH2 0x68B JUMPI DUP1 DUP3 ADD MLOAD DUP2 DUP5 ADD MSTORE PUSH1 0x20 DUP2 ADD SWAP1 POP PUSH2 0x670 JUMP JUMPDEST PUSH1 0x0 DUP5 DUP5 ADD MSTORE POP POP POP POP JUMP JUMPDEST PUSH1 0x0 PUSH2 0x6A2 DUP3 PUSH2 0x651 JUMP JUMPDEST PUSH2 0x6AC DUP2 DUP6 PUSH2 0x65C JUMP JUMPDEST SWAP4 POP PUSH2 0x6BC DUP2 DUP6 PUSH1 0x20 DUP7 ADD PUSH2 0x66D JUMP JUMPDEST PUSH2 0x6C5 DUP2 PUSH2 0x44E JUMP JUMPDEST DUP5 ADD SWAP2 POP POP SWAP3 SWAP2 POP POP JUMP JUMPDEST PUSH1 0x0 PUSH1 0x60 DUP4 ADD PUSH1 0x0 DUP4 ADD MLOAD PUSH2 0x6E8 PUSH1 0x0 DUP7 ADD DUP3 PUSH2 0x642 JUMP JUMPDEST POP PUSH1 0x20 DUP4 ADD MLOAD DUP5 DUP3 SUB PUSH1 0x20 DUP7 ADD MSTORE PUSH2 0x700 DUP3 DUP3 PUSH2 0x697 JUMP JUMPDEST SWAP2 POP POP PUSH1 0x40 DUP4 ADD MLOAD DUP5 DUP3 SUB PUSH1 0x40 DUP7 ADD MSTORE PUSH2 0x71A DUP3 DUP3 PUSH2 0x697 JUMP JUMPDEST SWAP2 POP POP DUP1 SWAP2 POP POP SWAP3 SWAP2 POP POP JUMP JUMPDEST PUSH1 0x0 PUSH1 0x20 DUP3 ADD SWAP1 POP DUP2 DUP2 SUB PUSH1 0x0 DUP4 ADD MSTORE PUSH2 0x741 DUP2 DUP5 PUSH2 0x6D0 JUMP JUMPDEST SWAP1 POP SWAP3 SWAP2 POP POP JUMP JUMPDEST PUSH1 0x0 DUP1 PUSH1 0x40 DUP4 DUP6 SUB SLT ISZERO PUSH2 0x760 JUMPI PUSH2 0x75F PUSH2 0x404 JUMP JUMPDEST JUMPDEST PUSH1 0x0 DUP4 ADD CALLDATALOAD PUSH8 0xFFFFFFFFFFFFFFFF DUP2 GT ISZERO PUSH2 0x77E JUMPI PUSH2 0x77D PUSH2 0x409 JUMP JUMPDEST JUMPDEST PUSH2 0x78A DUP6 DUP3 DUP7 ADD PUSH2 0x55C JUMP JUMPDEST SWAP3 POP POP PUSH1 0x20 DUP4 ADD CALLDATALOAD PUSH8 0xFFFFFFFFFFFFFFFF DUP2 GT ISZERO PUSH2 0x7AB JUMPI PUSH2 0x7AA PUSH2 0x409 JUMP JUMPDEST JUMPDEST PUSH2 0x7B7 DUP6 DUP3 DUP7 ADD PUSH2 0x55C JUMP JUMPDEST SWAP2 POP POP SWAP3 POP SWAP3 SWAP1 POP JUMP JUMPDEST PUSH1 0x0 DUP3 DUP3 MSTORE PUSH1 0x20 DUP3 ADD SWAP1 POP SWAP3 SWAP2 POP POP JUMP JUMPDEST PUSH32 0x4974656D20646F6573206E6F7420657869737400000000000000000000000000 PUSH1 0x0 DUP3 ADD MSTORE POP JUMP JUMPDEST PUSH1 0x0 PUSH2 0x808 PUSH1 0x13 DUP4 PUSH2 0x7C1 JUMP JUMPDEST SWAP2 POP PUSH2 0x813 DUP3 PUSH2 0x7D2 JUMP JUMPDEST PUSH1 0x20 DUP3 ADD SWAP1 POP SWAP2 SWAP1 POP JUMP JUMPDEST PUSH1 0x0 PUSH1 0x20 DUP3 ADD SWAP1 POP DUP2 DUP2 SUB PUSH1 0x0 DUP4 ADD MSTORE PUSH2 0x837 DUP2 PUSH2 0x7FB JUMP JUMPDEST SWAP1 POP SWAP2 SWAP1 POP JUMP JUMPDEST PUSH32 0x4E487B7100000000000000000000000000000000000000000000000000000000 PUSH1 0x0 MSTORE PUSH1 0x22 PUSH1 0x4 MSTORE PUSH1 0x24 PUSH1 0x0 REVERT JUMPDEST PUSH1 0x0 PUSH1 0x2 DUP3 DIV SWAP1 POP PUSH1 0x1 DUP3 AND DUP1 PUSH2 0x885 JUMPI PUSH1 0x7F DUP3 AND SWAP2 POP JUMPDEST PUSH1 0x20 DUP3 LT DUP2 SUB PUSH2 0x898 JUMPI PUSH2 0x897 PUSH2 0x83E JUMP JUMPDEST JUMPDEST POP SWAP2 SWAP1 POP JUMP JUMPDEST PUSH1 0x0 DUP2 SWAP1 POP DUP2 PUSH1 0x0 MSTORE PUSH1 0x20 PUSH1 0x0 KECCAK256 SWAP1 POP SWAP2 SWAP1 POP JUMP JUMPDEST PUSH1 0x0 PUSH1 0x20 PUSH1 0x1F DUP4 ADD DIV SWAP1 POP SWAP2 SWAP1 POP JUMP JUMPDEST PUSH1 0x0 DUP3 DUP3 SHL SWAP1 POP SWAP3 SWAP2 POP POP JUMP JUMPDEST PUSH1 0x0 PUSH1 0x8 DUP4 MUL PUSH2 0x900 PUSH32 0xFFFFFFFFFFFFFFFFFFFFFFFFFFFFFFFFFFFFFFFFFFFFFFFFFFFFFFFFFFFFFFFF DUP3 PUSH2 0x8C3 JUMP JUMPDEST PUSH2 0x90A DUP7 DUP4 PUSH2 0x8C3 JUMP JUMPDEST SWAP6 POP DUP1 NOT DUP5 AND SWAP4 POP DUP1 DUP7 AND DUP5 OR SWAP3 POP POP POP SWAP4 SWAP3 POP POP POP JUMP JUMPDEST PUSH1 0x0 DUP2 SWAP1 POP SWAP2 SWAP1 POP JUMP JUMPDEST PUSH1 0x0 PUSH2 0x947 PUSH2 0x942 PUSH2 0x93D DUP5 PUSH2 0x40E JUMP JUMPDEST PUSH2 0x922 JUMP JUMPDEST PUSH2 0x40E JUMP JUMPDEST SWAP1 POP SWAP2 SWAP1 POP JUMP JUMPDEST PUSH1 0x0 DUP2 SWAP1 POP SWAP2 SWAP1 POP JUMP JUMPDEST PUSH2 0x961 DUP4 PUSH2 0x92C JUMP JUMPDEST PUSH2 0x975 PUSH2 0x96D DUP3 PUSH2 0x94E JUMP JUMPDEST DUP5 DUP5 SLOAD PUSH2 0x8D0 JUMP JUMPDEST DUP3 SSTORE POP POP POP POP JUMP JUMPDEST PUSH1 0x0 SWAP1 JUMP JUMPDEST PUSH2 0x98A PUSH2 0x97D JUMP JUMPDEST PUSH2 0x995 DUP2 DUP5 DUP5 PUSH2 0x958 JUMP JUMPDEST POP POP POP JUMP JUMPDEST JUMPDEST DUP2 DUP2 LT ISZERO PUSH2 0x9B9 JUMPI PUSH2 0x9AE PUSH1 0x0 DUP3 PUSH2 0x982 JUMP JUMPDEST PUSH1 0x1 DUP2 ADD SWAP1 POP PUSH2 0x99B JUMP JUMPDEST POP POP JUMP JUMPDEST PUSH1 0x1F DUP3 GT ISZERO PUSH2 0x9FE JUMPI PUSH2 0x9CF DUP2 PUSH2 0x89E JUMP JUMPDEST PUSH2 0x9D8 DUP5 PUSH2 0x8B3 JUMP JUMPDEST DUP2 ADD PUSH1 0x20 DUP6 LT ISZERO PUSH2 0x9E7 JUMPI DUP2 SWAP1 POP JUMPDEST PUSH2 0x9FB PUSH2 0x9F3 DUP6 PUSH2 0x8B3 JUMP JUMPDEST DUP4 ADD DUP3 PUSH2 0x99A JUMP JUMPDEST POP POP JUMPDEST POP POP POP JUMP JUMPDEST PUSH1 0x0 DUP3 DUP3 SHR SWAP1 POP SWAP3 SWAP2 POP POP JUMP JUMPDEST PUSH1 0x0 PUSH2 0xA21 PUSH1 0x0 NOT DUP5 PUSH1 0x8 MUL PUSH2 0xA03 JUMP JUMPDEST NOT DUP1 DUP4 AND SWAP2 POP POP SWAP3 SWAP2 POP POP JUMP JUMPDEST PUSH1 0x0 PUSH2 0xA3A DUP4 DUP4 PUSH2 0xA10 JUMP JUMPDEST SWAP2 POP DUP3 PUSH1 0x2 MUL DUP3 OR SWAP1 POP SWAP3 SWAP2 POP POP JUMP JUMPDEST PUSH2 0xA53 DUP3 PUSH2 0x651 JUMP JUMPDEST PUSH8 0xFFFFFFFFFFFFFFFF DUP2 GT ISZERO PUSH2 0xA6C JUMPI PUSH2 0xA6B PUSH2 0x45F JUMP JUMPDEST JUMPDEST PUSH2 0xA76 DUP3 SLOAD PUSH2 0x86D JUMP JUMPDEST PUSH2 0xA81 DUP3 DUP3 DUP6 PUSH2 0x9BD JUMP JUMPDEST PUSH1 0x0 PUSH1 0x20 SWAP1 POP PUSH1 0x1F DUP4 GT PUSH1 0x1 DUP2 EQ PUSH2 0xAB4 JUMPI PUSH1 0x0 DUP5 ISZERO PUSH2 0xAA2 JUMPI DUP3 DUP8 ADD MLOAD SWAP1 POP JUMPDEST PUSH2 0xAAC DUP6 DUP3 PUSH2 0xA2E JUMP JUMPDEST DUP7 SSTORE POP PUSH2 0xB14 JUMP JUMPDEST PUSH1 0x1F NOT DUP5 AND PUSH2 0xAC2 DUP7 PUSH2 0x89E JUMP JUMPDEST PUSH1 0x0 JUMPDEST DUP3 DUP2 LT ISZERO PUSH2 0xAEA JUMPI DUP5 DUP10 ADD MLOAD DUP3 SSTORE PUSH1 0x1 DUP3 ADD SWAP2 POP PUSH1 0x20 DUP6 ADD SWAP5 POP PUSH1 0x20 DUP2 ADD SWAP1 POP PUSH2 0xAC5 JUMP JUMPDEST DUP7 DUP4 LT ISZERO PUSH2 0xB07 JUMPI DUP5 DUP10 ADD MLOAD PUSH2 0xB03 PUSH1 0x1F DUP10 AND DUP3 PUSH2 0xA10 JUMP JUMPDEST DUP4 SSTORE POP JUMPDEST PUSH1 0x1 PUSH1 0x2 DUP9 MUL ADD DUP9 SSTORE POP POP POP JUMPDEST POP POP POP POP POP POP JUMP JUMPDEST PUSH2 0xB25 DUP2 PUSH2 0x40E JUMP JUMPDEST DUP3 MSTORE POP POP JUMP JUMPDEST PUSH1 0x0 PUSH2 0xB36 DUP3 PUSH2 0x651 JUMP JUMPDEST PUSH2 0xB40 DUP2 DUP6 PUSH2 0x7C1 JUMP JUMPDEST SWAP4 POP PUSH2 0xB50 DUP2 DUP6 PUSH1 0x20 DUP7 ADD PUSH2 0x66D JUMP JUMPDEST PUSH2 0xB59 DUP2 PUSH2 0x44E JUMP JUMPDEST DUP5 ADD SWAP2 POP POP SWAP3 SWAP2 POP POP JUMP JUMPDEST PUSH1 0x0 PUSH1 0x60 DUP3 ADD SWAP1 POP PUSH2 0xB79 PUSH1 0x0 DUP4 ADD DUP7 PUSH2 0xB1C JUMP JUMPDEST DUP2 DUP2 SUB PUSH1 0x20 DUP4 ADD MSTORE PUSH2 0xB8B DUP2 DUP6 PUSH2 0xB2B JUMP JUMPDEST SWAP1 POP DUP2 DUP2 SUB PUSH1 0x40 DUP4 ADD MSTORE PUSH2 0xB9F DUP2 DUP5 PUSH2 0xB2B JUMP JUMPDEST SWAP1 POP SWAP5 SWAP4 POP POP POP POP JUMP JUMPDEST PUSH32 0x4E487B7100000000000000000000000000000000000000000000000000000000 PUSH1 0x0 MSTORE PUSH1 0x11 PUSH1 0x4 MSTORE PUSH1 0x24 PUSH1 0x0 REVERT JUMPDEST PUSH1 0x0 PUSH2 0xBE3 DUP3 PUSH2 0x40E JUMP JUMPDEST SWAP2 POP PUSH32 0xFFFFFFFFFFFFFFFFFFFFFFFFFFFFFFFFFFFFFFFFFFFFFFFFFFFFFFFFFFFFFFFF DUP3 SUB PUSH2 0xC15 JUMPI PUSH2 0xC14 PUSH2 0xBA9 JUMP JUMPDEST JUMPDEST PUSH1 0x1 DUP3 ADD SWAP1 POP SWAP2 SWAP1 POP JUMP INVALID LOG2 PUSH5 0x6970667358 0x22 SLT KECCAK256 0xB6 CODECOPY DELEGATECALL 0xA6 SWAP12 XOR SIGNEXTEND 0xB8 CALLDATACOPY 0xD3 DUP14 PC SSTORE 0xF8 SWAP7 0x4E EXTCODEHASH PC 0xC 0xC7 0xFC PUSH15 0xCA78C108E1058C56C0F064736F6C63 NUMBER STOP ADDMOD SHR STOP CALLER "},"methodIdentifiers":{"createItem(string,string)":"e03fd74c","readItem(uint256)":"838b96bd","updateItem(uint256,string,string)":"461304ac"}}}}}