{
  "_format": "hh-sol-artifact-1",
  "contractName": "smartContractTronix",
  "sourceName": "contracts/smartContractTronix.sol",
  "abi": [
    {
      "anonymous": false,
      "inputs": [
        {
          "indexed": false,
          "internalType": "uint256",
          "name": "id",
          "type": "uint256"
        },
        {
          "indexed": false,
          "internalType": "string",
          "name": "name",
          "type": "string"
        },
        {
          "indexed": false,
          "internalType": "string",
          "name": "description",
          "type": "string"
        }
      ],
      "name": "ItemCreated",
      "type": "event"
    },
    {
      "anonymous": false,
      "inputs": [
        {
          "indexed": false,
          "internalType": "uint256",
          "name": "id",
          "type": "uint256"
        },
        {
          "indexed": false,
          "internalType": "string",
          "name": "name",
          "type": "string"
        },
        {
          "indexed": false,
          "internalType": "string",
          "name": "description",
          "type": "string"
        }
      ],
      "name": "ItemUpdated",
      "type": "event"
    },
    {
      "inputs": [
        {
          "internalType": "string",
          "name": "_name",
          "type": "string"
        },
        {
          "internalType": "string",
          "name": "_description",
          "type": "string"
        }
      ],
      "name": "createItem",
      "outputs": [],
      "stateMutability": "nonpayable",
      "type": "function"
    },
    {
      "inputs": [
        {
          "internalType": "uint256",
          "name": "_id",
          "type": "uint256"
        }
      ],
      "name": "readItem",
      "outputs": [
        {
          "components": [
            {
              "internalType": "uint256",
              "name": "id",
              "type": "uint256"
            },
            {
              "internalType": "string",
              "name": "name",
              "type": "string"
            },
            {
              "internalType": "string",
              "name": "description",
              "type": "string"
            }
          ],
          "internalType": "struct smartContractTronix.Item",
          "name": "",
          "type": "tuple"
        }
      ],
      "stateMutability": "view",
      "type": "function"
    },
    {
      "inputs": [
        {
          "internalType": "uint256",
          "name": "_id",
          "type": "uint256"
        },
        {
          "internalType": "string",
          "name": "_name",
          "type": "string"
        },
        {
          "internalType": "string",
          "name": "_description",
          "type": "string"
        }
      ],
      "name": "updateItem",
      "outputs": [],
      "stateMutability": "nonpayable",
      "type": "function"
    }
  ],
  "bytecode": "0x6080604052348015600f57600080fd5b50610c568061001f6000396000f3fe608060405234801561001057600080fd5b50600436106100415760003560e01c8063461304ac14610046578063838b96bd14610062578063e03fd74c14610092575b600080fd5b610060600480360381019061005b919061058a565b6100ae565b005b61007c60048036038101906100779190610615565b610178565b6040516100899190610727565b60405180910390f35b6100ac60048036038101906100a79190610749565b610316565b005b60015483106100f2576040517f08c379a00000000000000000000000000000000000000000000000000000000081526004016100e99061081e565b60405180910390fd5b8160008085815260200190815260200160002060010190816101149190610a4a565b508060008085815260200190815260200160002060020190816101379190610a4a565b507fbf4a7d691939ab5b2b4a184365cfb2e54353ec11a2b035ad55b2a5569475bdb983838360405161016b93929190610b64565b60405180910390a1505050565b6101806103d9565b60015482106101c4576040517f08c379a00000000000000000000000000000000000000000000000000000000081526004016101bb9061081e565b60405180910390fd5b600080838152602001908152602001600020604051806060016040529081600082015481526020016001820180546101fb9061086d565b80601f01602080910402602001604051908101604052809291908181526020018280546102279061086d565b80156102745780601f1061024957610100808354040283529160200191610274565b820191906000526020600020905b81548152906001019060200180831161025757829003601f168201915b5050505050815260200160028201805461028d9061086d565b80601f01602080910402602001604051908101604052809291908181526020018280546102b99061086d565b80156103065780601f106102db57610100808354040283529160200191610306565b820191906000526020600020905b8154815290600101906020018083116102e957829003601f168201915b5050505050815250509050919050565b604051806060016040528060015481526020018381526020018281525060008060015481526020019081526020016000206000820151816000015560208201518160010190816103669190610a4a565b50604082015181600201908161037c9190610a4a565b509050507f7179977f81d27c241e5f84bd179e388a2875c956dec1b884a1427ff70d1cdd7560015483836040516103b593929190610b64565b60405180910390a1600160008154809291906103d090610bd8565b91905055505050565b60405180606001604052806000815260200160608152602001606081525090565b6000604051905090565b600080fd5b600080fd5b6000819050919050565b6104218161040e565b811461042c57600080fd5b50565b60008135905061043e81610418565b92915050565b600080fd5b600080fd5b6000601f19601f8301169050919050565b7f4e487b7100000000000000000000000000000000000000000000000000000000600052604160045260246000fd5b6104978261044e565b810181811067ffffffffffffffff821117156104b6576104b561045f565b5b80604052505050565b60006104c96103fa565b90506104d5828261048e565b919050565b600067ffffffffffffffff8211156104f5576104f461045f565b5b6104fe8261044e565b9050602081019050919050565b82818337600083830152505050565b600061052d610528846104da565b6104bf565b90508281526020810184848401111561054957610548610449565b5b61055484828561050b565b509392505050565b600082601f83011261057157610570610444565b5b813561058184826020860161051a565b91505092915050565b6000806000606084860312156105a3576105a2610404565b5b60006105b18682870161042f565b935050602084013567ffffffffffffffff8111156105d2576105d1610409565b5b6105de8682870161055c565b925050604084013567ffffffffffffffff8111156105ff576105fe610409565b5b61060b8682870161055c565b9150509250925092565b60006020828403121561062b5761062a610404565b5b60006106398482850161042f565b91505092915050565b61064b8161040e565b82525050565b600081519050919050565b600082825260208201905092915050565b60005b8381101561068b578082015181840152602081019050610670565b60008484015250505050565b60006106a282610651565b6106ac818561065c565b93506106bc81856020860161066d565b6106c58161044e565b840191505092915050565b60006060830160008301516106e86000860182610642565b50602083015184820360208601526107008282610697565b9150506040830151848203604086015261071a8282610697565b9150508091505092915050565b6000602082019050818103600083015261074181846106d0565b905092915050565b600080604083850312156107605761075f610404565b5b600083013567ffffffffffffffff81111561077e5761077d610409565b5b61078a8582860161055c565b925050602083013567ffffffffffffffff8111156107ab576107aa610409565b5b6107b78582860161055c565b9150509250929050565b600082825260208201905092915050565b7f4974656d20646f6573206e6f7420657869737400000000000000000000000000600082015250565b60006108086013836107c1565b9150610813826107d2565b602082019050919050565b60006020820190508181036000830152610837816107fb565b9050919050565b7f4e487b7100000000000000000000000000000000000000000000000000000000600052602260045260246000fd5b6000600282049050600182168061088557607f821691505b6020821081036108985761089761083e565b5b50919050565b60008190508160005260206000209050919050565b60006020601f8301049050919050565b600082821b905092915050565b6000600883026109007fffffffffffffffffffffffffffffffffffffffffffffffffffffffffffffffff826108c3565b61090a86836108c3565b95508019841693508086168417925050509392505050565b6000819050919050565b600061094761094261093d8461040e565b610922565b61040e565b9050919050565b6000819050919050565b6109618361092c565b61097561096d8261094e565b8484546108d0565b825550505050565b600090565b61098a61097d565b610995818484610958565b505050565b5b818110156109b9576109ae600082610982565b60018101905061099b565b5050565b601f8211156109fe576109cf8161089e565b6109d8846108b3565b810160208510156109e7578190505b6109fb6109f3856108b3565b83018261099a565b50505b505050565b600082821c905092915050565b6000610a2160001984600802610a03565b1980831691505092915050565b6000610a3a8383610a10565b9150826002028217905092915050565b610a5382610651565b67ffffffffffffffff811115610a6c57610a6b61045f565b5b610a76825461086d565b610a818282856109bd565b600060209050601f831160018114610ab45760008415610aa2578287015190505b610aac8582610a2e565b865550610b14565b601f198416610ac28661089e565b60005b82811015610aea57848901518255600182019150602085019450602081019050610ac5565b86831015610b075784890151610b03601f891682610a10565b8355505b6001600288020188555050505b505050505050565b610b258161040e565b82525050565b6000610b3682610651565b610b4081856107c1565b9350610b5081856020860161066d565b610b598161044e565b840191505092915050565b6000606082019050610b796000830186610b1c565b8181036020830152610b8b8185610b2b565b90508181036040830152610b9f8184610b2b565b9050949350505050565b7f4e487b7100000000000000000000000000000000000000000000000000000000600052601160045260246000fd5b6000610be38261040e565b91507fffffffffffffffffffffffffffffffffffffffffffffffffffffffffffffffff8203610c1557610c14610ba9565b5b60018201905091905056fea2646970667358221220b639f4a69b180bb837d38d5855f8964e3f580cc7fc6eca78c108e1058c56c0f064736f6c634300081c0033",
  "linkReferences": {},
  "deployedLinkReferences": {}
}